:020000040800F2
:1000000000000220F1530008655300086753000800
:10001000695300086B5300086D530008000000008E
:100020000000000000000000000000006F53000806
:100030007153000800000000735300087553000856
:10004000415400084154000841540008415400083C
:10005000415400084154000841540008415400082C
:10006000415400084154000841540008415400081C
:10007000415400084154000841540008415400080C
:1000800085530008415400084154000841540008B9
:1000900041540008415400084154000841540008EC
:1000A00041540008415400084154000841540008DC
:1000B0009553000841540008415400084154000879
:1000C00041540008415400084154000841540008BC
:1000D00041540008415400084154000841540008AC
:1000E000415400084154000841540008415400089C
:1000F000415400084154000841540008415400088C
:10010000415400084154000841540008415400087B
:10011000415400084154000841540008415400086B
:10012000415400084154000841540008415400085B
:10013000415400084154000841540008415400084B
:10014000415400084154000841540008415400083B
:10015000415400084154000841540008415400082B
:10016000415400084154000841540008415400081B
:1001700041540008415400084154000800000000A8
:0801800041540008415400083D
:1001880010B5054C237833B9044B13B10448AFF3C9
:1001980000800123237010BD100000200000000023
:1001A800A454000808B5034B1BB103490348AFF337
:1001B800008008BD0000000014000020A4540008BE
:1001C80053B94AB9002908BF00281CBF4FF0FF31B6
:1001D8004FF0FF3000F072B9ADF1080C6DE904CEB4
:1001E80000F006F8DDF804E0DDE9022304B070470A
:1001F8002DE9F047089E04468846002B4BD18A42D9
:10020800154667D9B2FA82F24AB1C2F1200701FA5B
:1002180002F320FA07F7954047EA030894404FEAAB
:10022800154E230CB8FBFEF71FFA85FC0EFB17884A
:1002380043EA084307FB0CF1994209D9EB1807F187
:10024800FF3080F01B81994240F21881023F2B4415
:100258005B1AA4B2B3FBFEF00EFB103344EA03446E
:1002680000FB0CFCA44509D92C1900F1FF3380F0E0
:100278000781A44540F2048102382C4440EA074033
:10028800A4EB0C0400271EB1D4400023C6E90043A8
:100298003946BDE8F0878B4209D9002E00F0EB8083
:1002A8000027C6E9000138463946BDE8F087B3FAA9
:1002B80083F7002F47D18B4202D3824200F2FA80A3
:1002C800841A61EB030301209846002EE0D0C6E9AA
:1002D8000048DDE702B9FFDEB2FA82F2002A40F0F8
:1002E8008F80491B4FEA154E1FFA85F80127B1FB8D
:1002F800FEFC230C0EFB1C1143EA014308FB0CF126
:10030800994207D9EB180CF1FF3002D2994200F25A
:10031800CD808446591AA3B2B1FBFEF00EFB10142F
:1003280043EA044408FB00F8A04507D92C1900F15A
:10033800FF3302D2A04500F2B6801846A4EB0804A9
:1003480040EA0C409FE7C7F1200CBB4022FA0CFEA4
:100358004EEA030E01FA07F420FA0CF521FA0CF321
:100368004FEA1E482543B3FBF8F92C0C08FB193358
:100378001FFA8EFA44EA034309FB0AF49C4202FA84
:1003880007F200FA07F10BD91EEB030309F1FF305E
:1003980080F087809C4240F28480A9F1020973446E
:1003A8001B1BADB2B3FBF8F008FB103345EA03445E
:1003B80000FB0AFAA24508D91EEB040400F1FF333A
:1003C8006BD2A24569D90238744440EA0940A0FBBF
:1003D8000289A4EB0A044C45C2464B4654D351D07B
:1003E800002E69D0B1EB0A0564EB030404FA0CFC97
:1003F800FD40FC404CEA0505C6E90054002747E7E4
:10040800C2F1200320FA03F7954001FA02F021FA1D
:1004180003F34FEA154E3843010CB3FBFEF71FFAFE
:1004280085F80EFB173341EA034107FB08F38B42BB
:1004380004FA02F407D9691807F1FF3C2FD28B425E
:100448002DD9023F2944CB1A81B2B3FBFEF00EFB33
:10045800103341EA034100FB08F38B4207D96918BE
:1004680000F1FF3C17D28B4215D902382944C91A2A
:1004780040EA07473BE73746304609E70746E7E6DD
:100488001846FBE64145ABD2B8EB020A69EB0E020F
:1004980001381346A4E76046E9E7184695E767463A
:1004A800D1E781467CE702382C4447E7ACF1020CDF
:1004B8002B442FE7384608E73746E9E6704700BF80
:1004C80010B504460E4B18784FF47A73B3FBF0F36B
:1004D8000C4A1068B0FBF3F000F094F868B90F2CE0
:1004E80001D901200AE0002221464FF0FF3000F038
:1004F80049F8034B5C60002000E0012010BD00BFFC
:10050800000000200C00002008B50B4B1A6842F4CC
:1005180000721A601A6842F480621A601A6842F41B
:1005280080721A60032000F01BF80020FFF7C8FF54
:1005380004F0AAFD002008BD003C0240034A1168EF
:10054800034B1B780B441360704700BFE002002088
:1005580000000020014B1868704700BFE00200202F
:10056800074AD36823F4E0631B041B0C000200F461
:10057800E060184340F0BF6040F40030D06070473E
:1005880000ED00E030B4174BDB68C3F30223C3F17E
:100598000704042C28BF04241D1D062D18D9033B6D
:1005A8004FF0FF3505FA04F421EA0401994005FAF1
:1005B80003F322EA0303194300280BDB0901C9B23C
:1005C80000F1604000F5614080F8001330BC7047CE
:1005D8000023E5E700F00F000901C9B2024B1954E6
:1005E800F4E700BF00ED00E014ED00E000F01F02AA
:1005F800400901239340024A42F82030704700BF67
:1006080000E100E00138B0F1807F0AD2064B586063
:10061800064AF02182F823100020986007221A6009
:1006280070470120704700BF10E000E000ED00E0D7
:10063800042805D0054A136823F0040313607047A3
:10064800024A136843F004031360704710E000E0A7
:10065800704708B5FFF7FCFF08BD70B110B5044638
:10066800037933B102232371002020610123237110
:1006780010BD437104F052FDF4E70120704743793F
:10068800012B31D010B40123437102220271046896
:1006980022688B4013432360B1B90268116813685C
:1006A80003F0380311F0040F01D0382B07D00123D1
:1006B80003710023437118465DF8044B7047536873
:1006C80043F001035360F2E702681168136803F40A
:1006D800601311F4802FEAD0B3F5601FE7D1536897
:1006E80043F002035360E2E7022070474379012B8D
:1006F8001FD070B401254571022303710668336861
:1007080040F6FE74944023EA04040B6849680B43DE
:1007180093402343336004682368C02101FA02F23E
:1007280023EA02022260057100234371184670BC57
:1007380070470220704710B483B000240194006809
:10074800019051B101990A4414320192019A13603F
:10075800002003B05DF8044B704701990A44083241
:100768000192F3E730B405682C6824F480242C60E7
:10077800046863608368402B05D003689960036848
:10078800DA6030BC704703689A600368D960F8E79C
:100798000268D3B2103B0B49A1FB03131B090A499A
:1007A800C95CC165032B06D822F47F7222F00302CC
:1007B8008265806D704722F47F7222F00302043252
:1007C8008265F6E7ABAAAAAABC540008836A8269C4
:1007D80092B9012B0AD01BB1022B01D0002070471F
:1007E800C36A13F0807F2CD100207047C36AB3F12D
:1007F800C07F28D000207047B2F5005F05D0022BDB
:1008080029D9032B15D000207047032B03D8DFE824
:1008180003F01C041C0A00207047C36A13F0807F91
:1008280015D100207047C36AB3F1C07F11D00020F2
:100838007047C36A13F0807F01D001207047002001
:100848007047012070470120704701207047012040
:1008580070470120704701207047000070B50446BA
:10086800FFF778FE002C5BD00546002384F834306F
:10087800022384F835302268136823F001031360DB
:1008880023681A6812F0010F0AD0FFF763FE401BB5
:100898000528F5D920236365032084F8350070BD49
:1008A8001A68204810406168A2680A43E1680A4350
:1008B80021690A4361690A43A1690A43E1690A4354
:1008C800216A0A430243616A04291ED01A60266815
:1008D800756925F00705636A1D43042B07D1A36AD0
:1008E8001D43E36A1BB12046FFF770FF90B975619D
:1008F8002046FFF74DFFE26D3F23934083600020C1
:100908006065012384F83530C9E7E16A206B01434B
:100918000A43DBE740236365012084F83500BEE71E
:100928000120BCE73F8010F038B5856D90F8344061
:10093800012C31D0012480F8344090F83540E4B2DD
:10094800012C04D0002380F83430022038BD04463E
:10095800022084F83500002060652046FFF702FF7A
:10096800E26D3F239340AB602268136843F016039F
:1009780013602268536943F080035361236C23B1E9
:100988002268136843F0080313602268136843F071
:10099800010313600020D9E70220D7E7F0B583B040
:1009A800044600230193724B1D68724BA3FB053567
:1009B800AD0A876D3E68C26D08239340334210D05C
:1009C80003681A6812F0040F0BD01A6822F00402A8
:1009D8001A60C26D08239340BB60436D43F0010366
:1009E8004365E26D01239340334209D0226852697E
:1009F80012F0800F04D0BB60636D43F0020363659F
:100A0800E26D04239340334209D02268126812F041
:100A1800020F04D0BB60636D43F004036365E26DAD
:100A280010239340334224D02268126812F0080F32
:100A38001FD0BB6023681A6812F4802F0DD01B6882
:100A480013F4002F04D1236C9BB12046984710E083
:100A5800A36C73B1204698470BE01A6812F4807FA4
:100A680003D11A6822F008021A60236C0BB12046E1
:100A78009847E26D20239340334255D0226812688C
:100A880012F0100F50D0BB6094F83530DBB2052B54
:100A98000ED023681A6812F4802F33D01B6813F421
:100AA800002F2AD1636C002B3ED0204698473BE0AC
:100AB8002268136823F0160313602268536923F031
:100AC80080035361236CA3B12268136823F00803E1
:100AD8001360E26D3F239340BB60002384F83430F9
:100AE800012384F83530236D002B3FD020469847EA
:100AF8003CE0A36C002BE7D1EBE7E36BA3B1204606
:100B0800984711E01A6812F4807F09D11A6822F018
:100B180010021A60002384F83430012384F8353039
:100B2800E36B0BB120469847636DFBB1636D13F01F
:100B3800010F17D0052384F835302268136823F095
:100B480001031360019B01330193AB4204D823686E
:100B58001B6813F0010FF5D1002384F8343001230A
:100B680084F83530E36C0BB12046984703B0F0BDEC
:100B78000C000020B5814E1B00230F2B00F2D780FC
:100B8800F0B482B039E0072200E00022B2403A43D4
:100B98000234674E46F82420664A1468EA4302EA9B
:100BA80004064F6817F4803F01D045EA0406614CFB
:100BB8002660646802EA04064F6817F4003F01D013
:100BC80045EA04065B4C6660A46802EA04064F68BE
:100BD80017F4801F01D045EA0406564CA660E46865
:100BE80022404E6816F4001F01D045EA0402514C19
:100BF800E26001330F2B00F2978001229A400C68C3
:100C080004EA0205AA42F4D14C68022C01D0122C45
:100C180010D1DE08083650F826C003F00704A700F4
:100C28000F24BC402CEA040C0C69BC4044EA0C04B8
:100C380040F8264004685F000326BE40F64306EAF3
:100C4800040C4C6804F00304BC4044EA0C0404603F
:100C58004C6804F1FF3CBCF1010F03D9112C01D001
:100C6800122C10D1846806EA040CCC68BC4044EA13
:100C78000C048460446824EA02024C68C4F300143B
:100C88009C4014434460C26816408A68BA403243A4
:100C9800C2604A6812F0805FABD000220192264AF7
:100CA800546C44F480445464526C02F480420192BF
:100CB800019A9C08A61C1E4A52F8267003F00302EB
:100CC80096000F22B24027EA02071C4A90423FF4DE
:100CD8005CAF02F5806290421AD002F580629042C1
:100CE80018D002F58062904216D002F580629042D8
:100CF80014D002F58062904212D002F580629042D0
:100D080010D002F5806290423FF43DAF08223DE7E3
:100D180001223BE7022239E7032237E7042235E7BD
:100D2800052233E7062231E702B0F0BC704770476E
:100D380000380140003C01400038024000000240F9
:100D480012B90904816170478161704703685A6963
:100D580012F4806F0DD06FF480625A61042303642B
:100D680000230363202280F83D2080F83C300120D6
:100D7800704700207047F8B506460C4617461D46D2
:100D88001EE02DB1FFF7E6FB069BC01AA84217D953
:100D980000233363202286F83D2086F83E3086F80B
:100DA8003C3003201AE033685B6924EA03039BB2F2
:100DB800B3FA83F35B099F420FD1B5F1FF3FE0D14E
:100DC800C4F30743012BEED033689B6924EA03037D
:100DD8009BB2B3FA83F35B09EDE70020F8BDF8B5E1
:100DE80004460D4616461F4632E01A6842F4007261
:100DF8001A6023686FF480625A6104232364002315
:100E08002363202284F83D2084F83C3001202DE023
:100E180026B1FFF79FFBC01BB04219D900232363FB
:100E2800202284F83D2084F83C3003201EE023680B
:100E38005B6925EA03039BB2003318BF0123A3B102
:100E480023685A6912F4806FCFD1B6F1FF3FDFD122
:100E5800C5F30743012BEAD023689B6925EA0303FE
:100E68009BB2003318BF0123E9E70020F8BD00005A
:100E7800F0B583B004460D4616461F46C36A042BD8
:100E88000DD0012B0BD013F5803F08D0036B122B2C
:100E98000AD10268136843F48073136004E022687F
:100EA800136843F4807313600097334600224FF0B1
:100EB80001112046FFF75FFF58BB2369B3F5804F48
:100EC80010D1236805F0FE051D613B4632461549E1
:100ED8002046FFF784FF0346E0B1236C042B1ED1A4
:100EE800012317E0EB11226803F0060343F0F00337
:100EF80013613B4632460C492046FFF770FF20B18C
:100F0800236C042B09D1012304E02368EDB21D6191
:100F1800DBE70323184603B0F0BD0323FAE70323F6
:100F2800F8E700BF02000100080001002DE9F041C8
:100F380084B004460D4616461F46C26A01680B680F
:100F480043F480630B60042A0DD0012A0BD012F5FC
:100F5800803F08D0036B112B0AD10268136843F451
:100F68008073136004E02268136843F4807313608D
:100F78000097334600224FF001112046FFF7FBFE91
:100F8800002852D12369B3F5804F12D1236845F068
:100F98000105EDB21D613B4632462A492046FFF75E
:100FA8001EFF0346002841D0236C042B48D101239F
:100FB8003CE04FEAE51808F00608236848F0F0021C
:100FC8001A613B46324620492046FFF708FF20B108
:100FD800236C042B2ED1012328E02368EDB21D6178
:100FE8003B46324617492046FFF7F9FE20B1236CED
:100FF800042B21D1012319E00022039223685969A7
:101008000391996903910399196841F480711960F2
:10101800009733464FF001112046FFF7ACFE68B940
:10102800226848F0F1031361B5E70323184604B0BA
:10103800BDE8F0810323F9E70323F7E70323F5E786
:101048000323F3E7020001000800010070B504461D
:101058000D46164623685B6913F0800F19D12046A8
:10106800FFF774FEB8B9B5F1FF3FF3D025B1FFF72C
:1010780071FA801BA842EDD9236C43F02003236446
:1010880000232363202284F83D2084F83C30032089
:1010980000E0002070BD0120FCE770B504460D4655
:1010A800164623685B6913F0040F19D12046FFF731
:1010B8004DFEB8B9B5F1FF3FF3D025B1FFF74AFAB5
:1010C800801BA842EDD9236C43F02003236400233E
:1010D8002363202284F83D2084F83C30032000E07C
:1010E800002070BD0120FCE770B505460C46164689
:1010F8002B685A6912F0400F22D15A6912F0100F6A
:1011080011D124B1FFF726FA801BA042F0D92B6C2D
:1011180043F020032B64202385F83D30002385F815
:101128003C30032070BD6FF010025A6100232B641D
:101138002B63202285F83D2085F83C300120F1E71B
:101148000020EFE7002800F0828010B5044690F8F0
:101158003D30002B41D0242384F83D3022681368A9
:1011680023F00103136001F03FF93A4BA3FB00237E
:101178009B0C226853606168374A914232D8013328
:10118800226813626368344A934235D85B00B0FB27
:10119800F3F0C0F30B03032B00D804202368D861B5
:1011A800E369216A22680B4313602369E1682268B6
:1011B8000B4393606369A16922680B43D36022687B
:1011C800136843F00103136000202064202384F88F
:1011D8003D30206384F83E0010BD80F83C3003F0B9
:1011E800C1FFB8E74FF4967202FB03F31B4AA2FB58
:1011F80003239B090133C3E7A16889B903EB4302C1
:10120800B0FBF2F2C2F30B02B2FA82F25209E2B96F
:1012180091B903EB4303B0FBF3F040F40040BDE7A2
:1012280003EB830202EB8202B0FBF2F2C2F30B0281
:10123800B2FA82F25209EAE703EB830303EB830372
:10124800B0FBF3F040F44040A8E70120A6E70120F6
:10125800704700BF83DE1B43A0860100D34D621098
:101268002DE9F04184B004460E4690461F46FFF72C
:1012780071F994F83D30DBB2202B04D002263046B9
:1012880004B0BDE8F08105460090192301225449B5
:101298002046FFF770FD002840F0998094F83C3014
:1012A800012B00F09680012384F83C3023681A68EB
:1012B80012F0010F03D11A6842F001021A60226885
:1012C800136823F400631360212384F83D3010234E
:1012D80084F83E3000232364C4F824806785A3F58E
:1012E8008033E362638D23852B460A9A3146204674
:1012F800FFF7BEFD064660B1236C042B04D1002322
:1013080084F83C300126BAE7002384F83C300326F1
:10131800B5E70023039323685A6903929B690393F3
:10132800039B10E0236C042B55D12268136843F407
:10133800007313600126A2E72A460A992046FFF7A0
:10134800ACFE00282BD1238D002B32D02A460A99D7
:101358002046FFF77BFE0028E4D1636A5A1C6262CC
:1013680022681B781361638D013B9BB26385238DD3
:10137800013B9BB223852268516911F0040FDBD031
:10138800002BD9D0636A591C61621B781361638D85
:10139800013B9BB26385238D013B2385CCE7236CFE
:1013A800042B1AD12268136843F4007313600126D2
:1013B80065E72268136843F400731360202384F8F8
:1013C8003D30002384F83E3084F83C3057E702264D
:1013D80055E7022653E7032651E703264FE700BFE8
:1013E800020010002DE9F04186B004460E469046F2
:1013F8001F46FFF7AFF894F83D30DBB2202B04D03E
:101408000226304606B0BDE8F08105460090192353
:1014180001228C492046FFF7AEFC002840F04B81A2
:1014280094F83C30012B00F04881012384F83C30CB
:1014380023681A6812F0010F03D11A6842F00102FA
:101448001A602268136823F400631360222384F867
:101458003D30102384F83E3000232364C4F82480F0
:101468006785A3F58033E362638D23852B460C9A49
:1014780031462046FFF75AFD064660B1236C042B1F
:1014880004D1002384F83C300126BAE7002384F80D
:101498003C300326B5E7238D5BB9029323685A696C
:1014A80002929A690292029A1A6842F400721A60C9
:1014B8007AE0012B0FD0022B1FD02268136843F467
:1014C800806313600023059323685A6905929B691A
:1014D8000593059B68E02268136823F48063136012
:1014E8000023039323685A6903929A690392039A23
:1014F8001A6842F400721A6056E02268136823F4EE
:10150800806313602268136843F400631360002348
:10151800049323685A6904929B690493049B43E0EB
:101528002A460C992046FFF7DFFD68B923681A6937
:10153800636A591C61621A70238D013B2385638D90
:10154800013B9BB263852FE0236C202B01D0012641
:1015580057E7032655E700950C9B00223A49204699
:10156800FFF709FC002840F0AA802268136843F4BA
:101578000073136023681A69636A591C61621A70E0
:10158800238D013B2385638D013B9BB263852368D3
:101598001A69636A591C61621A70238D013B23859D
:1015A800638D013B9BB26385238D002B7AD0032B7F
:1015B8004CD8012BB4D0022BCDD000950C9B002227
:1015C80021492046FFF7D7FB00287AD12268136803
:1015D80023F48063136023681A69636A591C616283
:1015E8001A70238D013B2385638D013B9BB2638574
:1015F80000950C9B002214492046FFF7BCFB0028ED
:1016080061D12268136843F40073136023681A6970
:10161800636A591C61621A70238D013B2385638DAF
:10162800013B9BB2638523681A69636A591C61622E
:101638001A70238D013B2385638D013B9BB2638523
:10164800B2E700BF02001000040001002A460C990E
:101658002046FFF749FDF0B923681A69636A591CE7
:1016680061621A70238D013B2385638D013B9BB218
:10167800638523685A6912F0040F95D01A69636A62
:10168800591C61621A70238D013B2385638D013BD0
:101698009BB2638588E7236C202B01D00126B0E636
:1016A8000326AEE6202384F83D30002384F83E303C
:1016B80084F83C30A5E60226A3E60226A1E6032626
:1016C8009FE603269DE603269BE600BF00294CD033
:1016D80010B50C46002A4AD090F84130DBB2012BF5
:1016E80047D141620368DB6903F00703032B04D089
:1016F800052B02D00285428503E0520092B2028592
:10170800428590F84030DBB2012B34D021460446A4
:10171800012380F8403000234364032380F84130DC
:10172800836B164A1A64836B154ADA63836B154A0E
:10173800DA640268038D0C32806BFFF7F5F82368D2
:10174800DA6912F4806F03D1DA6942F48062DA61EF
:1017580023685A6812F0020F03D15A6842F0020255
:101768005A60002084F8400002E001207047012000
:1017780010BD0220FCE70220FAE700BF931700081B
:10178800D7170008A91A0008704708B5806BFFF73B
:10179800FBFF08BD704708B5436A9A1C426202689D
:1017A8001B88D360438D013B9BB24385438D9BB21D
:1017B80003B108BD0268536823F0A0031B041B0C87
:1017C8005360012380F84130FFF7E4FFF1E708B5E3
:1017D800836B0268126812F4807F09D119684A681D
:1017E80022F002024A6000225A85012283F8412031
:1017F8001846FFF7CFFF08BD704708B50368DA68D9
:10180800C36A991CC1621A80438E013B9BB243860E
:10181800438E9BB203B108BD0268536823F060038E
:101828001B041B0C5360012380F84130FFF7E4FFD1
:10183800F1E77047002800F0BB8070B50446022528
:1018480080F841505B4B436303F0B8FC2268D369CE
:1018580023F47B6323F00F03D36123681D6223689D
:10186800DD696369022B5BD0E368002B3ED020263C
:10187800A368202B00D87600012000F06FFE2369B2
:10188800B3F5007F34D0B0FBF6F000EB80004300E6
:101898006269B3FBF2F30533474AA2FB0323DB0873
:1018A80003F001029B1AC3F34F0311029A1EFD2A8B
:1018B80038D822690A43216813430B626268A16819
:1018C800E068238B03439BB20B439BB213439BB249
:1018D80043F400631D432368DD61236A012B2AD08A
:1018E80000206064012384F8413070BD1026BFE7F2
:1018F800E36853B1B600B0FBF6F000EB800043009C
:101908006269B3FBF2F30533C6E7F600B0FBF6F005
:1019180000EB800043006269B3FBF2F30533BBE7D9
:101928000021C3E7636C43F0100363642046FFF7AC
:1019380080FF0120D9E7214B63632268204B9A423C
:101948001ED04FF04022D36923F47B6323F00F03AA
:10195800D36122681A4B9A4214D04FF040230222D6
:101968001A622268164B9A420FD04FF04022D06973
:101978006168B1F5007F0AD0C1B94FF4807608E0FC
:10198800104AE0E7A3F58063E9E70E4AEFE74FF472
:101998008076A168E568238B2B439BB20B439BB2EF
:1019A800334343F400630343D36199E70026F0E728
:1019B80001207047D1190008CDCCCCCC151C0008EB
:1019C800003800400034004010B584B00446026876
:1019D8009368039390F84130DBB2042B06D094F857
:1019E8004130DBB2032B2ED004B010BD039B13F0A3
:1019F800010F03D0536813F0400F21D1039B13F05C
:101A0800400FECD023685A6812F0200FE7D05A68CC
:101A180022F060021204120C5A600023019323681A
:101A2800DA6801929B680193019B012384F8413095
:101A3800636C43F0020363642046FFF7FAFECEE7C7
:101A4800FFF7DBFEDAE7039B13F0020F04D02368ED
:101A58005B6813F0800F1FD1039B13F0080FC3D0EE
:101A680023685A6812F0200FBED05A6822F0A002EC
:101A78001204120C5A600023029323689B68029395
:101A8800029B012384F84130636C43F004036364D0
:101A98002046FFF7CEFEA7E72046FFF77CFEDBE7F0
:101AA80008B5806B0268536823F003035360002372
:101AB80043854386012380F84130436C43F0080393
:101AC8004364FFF7B6FE08BD7047000008B5E9B9E2
:101AD800436A9A1C426202681B88D360438D013BAB
:101AE8009BB24385438D9BB24BB90268536823F080
:101AF800A0031B041B0C5360438E9BB203B108BDAB
:101B0800012380F84130FFF7DFFFF8E7436A9A1CAA
:101B180042621A880168134B99421ED04FF0402345
:101B2800DA60438D013B9BB24385438D9BB2002B0A
:101B3800E5D102680B4B9A4212D04FF0402253680D
:101B480023F0A0035360438E9BB2002BD7D101230F
:101B580080F84130FFF7B8FFD1E7A3F58063DFE7EE
:101B6800014AECE7003800400034004008B5E9B904
:101B78000368DA68C36A991CC1621A80438E013B04
:101B88009BB24386438E9BB24BB90268536823F0DD
:101B980060031B041B0C5360438D9BB203B108BD4B
:101BA800012380F84130FFF78FFFF8E70268154BF3
:101BB8009A4222D04FF04023DA68C36A991CC16266
:101BC8001A80438E013B9BB24386438E9BB2002B07
:101BD800E5D102680B4B9A4212D04FF0402253686D
:101BE80023F060035360438D9BB2002BD7D10123B0
:101BF80080F84130FFF768FFD1E7A3F58063DBE7A2
:101C0800014AECE7003800400034004010B584B0C9
:101C1800044603689A6803927C4A93425DD04FF069
:101C280040218A680292DA6902F44072B2F5007FB4
:101C380004D0DA6912F4407F40F08180039A12F0F0
:101C4800020F03D05B6813F0800F48D1029B13F09A
:101C5800010F09D022686D4B9A4245D04FF04023BE
:101C68005B6813F0400F42D1029B13F0400F09D07C
:101C78002268664B9A423FD04FF040235A6812F0D0
:101C8800200F3CD1039B13F0080F24D023685A6817
:101C980012F0200F1FD05A6822F0A0021204120C72
:101CA8005A602268594B9A4247D04FF040225368F5
:101CB80023F0600353600023019323689B6801931A
:101CC800019B012384F84130636C43F0040363648F
:101CD8002046FFF7AEFD04B010BD4D49A1E7002135
:101CE8002046FFF7F3FEB1E7A3F58063B8E70121CB
:101CF8002046FFF73BFFB7E7A3F58063BEE75A68C6
:101D080022F060025A602268536823F0A0031B0483
:101D18001B0C5360002300932368DA6800929B68C9
:101D28000093009B012384F84130636C43F0020365
:101D380063642046FFF77DFDA4E7354AB7E7029BB9
:101D480013F0020F03D04B6813F0800F4FD1039BA1
:101D580013F0010F04D023685B6813F0400F4BD1D8
:101D6800039B13F0400F1ED023685A6812F0200F0F
:101D780019D05A6822F060021204120C5A602268C4
:101D8800224B9A423DD04FF04022536823F0A003E3
:101D98005360012384F84130636C43F002036364A9
:101DA8002046FFF746FD029B13F0080F93D02268E8
:101DB800164B9A4227D04FF040235A6812F0200F52
:101DC80089D05A6822F0A0025A602268536823F02A
:101DD80060031B041B0C5360012384F84130636CBF
:101DE80043F0040363642046FFF723FD73E70121F2
:101DF8002046FFF76BFEAAE700212046FFF7B6FE54
:101E0800AEE7034AC1E7A3F58063D6E70038004090
:101E180000340040002800F0BB8170B582B0044651
:101E2800036813F0010F3BD0A74B9B6803F00C032A
:101E3800042B2CD0A44B9B6803F00C03082B21D057
:101E48006368B3F5803F4FD0B3F5A02F52D09E4BB7
:101E58001A6822F480321A601A6822F480221A6002
:101E68006368002B50D0FEF775FB0546964B1B6840
:101E780013F4003F14D1FEF76DFB401B6428F5D91D
:101E880003208AE1904B5B6813F4800FD8D08E4B07
:101E98001B6813F4003F03D06368002B00F07A81BD
:101EA800236813F0020F55D0874B9B6813F00C0F73
:101EB8003ED0854B9B6803F00C03082B33D0E368B6
:101EC800002B68D0814B01221A60FEF743FB0546C0
:101ED8007D4B1B6813F0020F54D1FEF73BFB401BF0
:101EE8000228F5D9032058E1774A136843F4803370
:101EF8001360B5E7744B1A6842F480221A601A68B6
:101F080042F480321A60ABE7FEF724FB05466E4BBD
:101F18001B6813F4003FC3D0FEF71CFB401B64286A
:101F2800F5D9032039E1684B5B6813F4800FC6D1FB
:101F3800654B1B6813F0020F04D0E368012B01D036
:101F480001202AE1604A136823F0F803216943EA73
:101F5800C1031360236813F0080F40D0636963B3AB
:101F68005B4B01221A60FEF7F5FA0546564B5B6F8C
:101F780013F0020F33D1FEF7EDFA401B0228F5D912
:101F880003200AE1504A136823F0F803216943EA61
:101F9800C1031360DEE74D4B00221A60FEF7DAFA40
:101FA8000546494B1B6813F0020FD3D0FEF7D2FA4F
:101FB800401B0228F5D90320EFE0454B00221A60A8
:101FC800FEF7C8FA0546404B5B6F13F0020F06D0C8
:101FD800FEF7C0FA401B0228F5D90320DDE023688C
:101FE80013F0040F79D0384B1B6C13F0805F33D19A
:101FF80000230193344B1A6C42F080521A641B6C14
:1020080003F080530193019B0125324B1B6813F4A5
:10201800807F23D0A368012B34D0052B38D02A4BDE
:102028001A6F22F001021A671A6F22F004021A6767
:10203800A368002B36D0FEF78DFA0646224B1B6F9D
:1020480013F0020F48D1FEF785FA801B41F288335E
:102058009842F3D90320A0E00025D6E71D4A13686B
:1020680043F480731360FEF775FA0646194B1B6834
:1020780013F4807FCED1FEF76DFA801B0228F5D9C4
:1020880003208AE0104A136F43F001031367CFE778
:102098000D4B1A6F42F004021A671A6F42F00102E0
:1020A8001A67C5E7FEF756FA0646074B1B6F13F08B
:1020B800020F11D0FEF74EFA801B41F28833984286
:1020C800F3D9032069E000BF00380240000047420E
:1020D800800E474200700040E5B9A369002B5BD031
:1020E800304A926802F00C02082A58D0022B17D006
:1020F8002D4B00221A60FEF72DFA0446294B1B6867
:1021080013F0007F42D0FEF725FA001B0228F5D90C
:10211800032042E0234A136C23F080531364DCE766
:10212800214B00221A60FEF715FA05461D4B1B6865
:1021380013F0007F06D0FEF70DFA401B0228F5D9F0
:1021480003202AE0E369226A1343626A43EA82139E
:10215800A26A5208013A43EA0243E26A43EA026386
:10216800104A5360104B01221A60FEF7F3F9044637
:102178000C4B1B6813F0007F06D1FEF7EBF9001B30
:102188000228F5D9032008E0002006E0002004E03A
:1021980001207047012000E0002002B070BD01203E
:1021A800FBE700BF0038024060004742324B9B68A3
:1021B80003F00C03042B5CD0082B01D02F48704788
:1021C8002DE9F04B2C4B5A6802F03F025B6813F480
:1021D800800F2BD0284B5B68C3F388131E4600275B
:1021E8005C010025E41A65EB0705A90141EA946141
:1021F800A001001B61EB0501CB0043EA5073C4004A
:10220800A01943EB07014B0243EAD053440220468E
:1022180019460023FDF7D4FF174B5B68C3F301434E
:1022280001335B00B0FBF3F0BDE8F08B124B5B6849
:10223800C3F388131E4600275C010025E41A65EBEA
:102248000705A90141EA9461A001001B61EB0501A2
:10225800CB0043EA5073C400A01943EB07018B027B
:1022680043EA90538402204619460023FDF7A8FF4D
:10227800D2E70348704700BF003802400024F4004A
:1022880000127A00002800F09D8070B504464F4B7C
:102298001B6803F00F038B4209D2CBB24B4A137071
:1022A800136803F00F038B4201D0012070BD23682F
:1022B80013F0020F17D013F0040F04D0444A9368A8
:1022C80043F4E0539360236813F0080F04D0404AA6
:1022D800936843F4604393603D4A936823F0F003A6
:1022E800A068034393600D46236813F0010F32D0B2
:1022F8006368012B21D09A1E012A25D9344A126815
:1023080012F0020F60D032498A6822F003021343A8
:102318008B60FEF71FF906462D4B9B6803F00C03F4
:102328006268B3EB820F16D0FEF714F9801B41F2F6
:1023380088339842F0D90320B8E7254A126812F486
:10234800003FE0D10120B1E7214A126812F0007F76
:10235800D9D10120AAE71D4B1B6803F00F03AB423C
:1023680009D9EAB2194B1A701B6803F00F03AB4284
:1023780001D001209AE7236813F0040F06D0144A0D
:10238800936823F4E053E1680B439360236813F0E8
:10239800080F07D00E4A936823F46043216943EA83
:1023A800C1039360FFF702FF094B9B68C3F3031354
:1023B800084AD35CD840084B18600020FEF780F824
:1023C800002073E70120704701206FE7003C0240BE
:1023D80000380240C45400080C000020014B186863
:1023E800704700BF0C00002008B5FFF7F7FF044B4B
:1023F8009B68C3F38223034AD35CD84008BD00BF5F
:1024080000380240D454000830B583B0044603684D
:1024180013F0050F06D1236813F0020F2ED1002008
:1024280003B030BD494B00221A60FEF793F8054609
:10243800474B1B6813F0006F06D0FEF78BF8401B64
:102448000228F5D90320EBE76268A3681B0743EA73
:1024580082133F4AC2F884303C4B01221A60FEF7CF
:1024680079F805463A4B1B6813F0006FD3D1FEF795
:1024780071F8401B0228F5D90320D1E70023019306
:10248800334B1A6C42F080521A641B6C03F0805371
:102498000193019B2F4A136843F480731360FEF77E
:1024A80059F805462B4B1B6813F4807F06D1FEF7BD
:1024B80051F8401B0228F5D90320B1E7244B1B6FC4
:1024C80013F4407312D0E26802F440729A420DD0BD
:1024D8001F4B1A6F22F440721F4901200860002028
:1024E80008601A671B6F13F0010F13D1E36803F438
:1024F8004072B2F5407F1ED0154A936823F4F81352
:10250800936013490B6FE268C2F30B0213430B6726
:10251800002085E7FEF71EF805460D4B1B6F13F0EC
:10252800020FE3D1FEF716F8401B41F288339842B8
:10253800F3D9032074E706498A6822F4F81223F0D5
:10254800704323F4407313438B60DAE76800474213
:102558000038024000700040400E474201282AD14E
:10256800174B9B6813F4000303D0012B25D11548A2
:102578007047134B5B6813F4800F14D0104B5B68E3
:1025880003F03F031048B0FBF3F00D4AD2F8843053
:10259800C3F3881300FB03F0D2F88430C3F302734B
:1025A800B0FBF3F07047064B5B6803F03F03074846
:1025B800B0FBF3F0E9E7002070470020704700BF48
:1025C800003802400080BB0000127A000024F400AA
:1025D800F8B505460F4616461C463BE02CB1FDF7FC
:1025E800B9FF069BC01AA04234D32A68536823F067
:1025F800E00353606B68B3F5827F0BD0AB6AB3F529
:10260800005F14D0012385F85130002385F850303D
:10261800032027E0AB68B3F5004F02D0B3F5806F15
:10262800ECD12A68136823F040031360E6E72A68B0
:10263800136823F400531B041B0C13602A681368E7
:1026480043F400531360DDE70123B34209D0B4F12A
:10265800FF3FC3D12B689B6837EA0303F4D00023FC
:10266800F3E70020F8BD10B582B0044600920B468F
:1026780000228021FFF7ACFF034610B9184602B0CC
:1026880010BD636D43F0200363650323F6E700285C
:102698003BD010B504460023836290F85130002BDC
:1026A8002ED0022384F851302268136823F04003A7
:1026B80013606368A2681343E268134322691343F3
:1026C80062691343A26902F400721343E269134377
:1026D800226A1343A16A22680B431360638B03F0D9
:1026E8000403616A22680B4353602268D36923F4A8
:1026F8000063D36100206065012384F8513010BD68
:1027080080F8503002F0BAFDCBE7012070472DE980
:10271800F04184B01E4690F85030012B00F0C8807C
:1027280004460D469046012380F85030FDF712FF0D
:10273800074694F85130DBB2012B0AD0022301225C
:1027480084F85120002284F85020184604B0BDE8CF
:10275800F081002D00F0A480B8F1000F00F0A280F5
:10276800032384F85130002363652563A4F834807B
:10277800A4F83680A363A387E38763642364A3680C
:10278800B3F5004F1BD023681A6812F0400F03D12D
:102798001A6842F040021A60E368B3F5006F14D07B
:1027A80063681BB1E38E9BB2012B3ED1236815F8F9
:1027B800012B1A73E38E013B9BB2E38635E0226856
:1027C800136843F480431360DDE763681BB1E38E4D
:1027D8009BB2012B0DD1236835F8022BDA60E38E0A
:1027E800013B9BB2E38604E0002E5DD0B6F1FF3FCB
:1027F8000FD1E38E9BB27BB323689A6812F0020F65
:10280800F2D035F8022BDA60E38E013B9BB2E38607
:10281800EFE7FDF79FFEC01BB042EAD303238EE724
:10282800002E43D0B6F1FF3F0FD1E38E9BB29BB190
:1028380023689A6812F0020FF2D015F8012B1A7368
:10284800E38E013B9BB2E386EFE7FDF783FEC01BF7
:10285800B042EAD3032372E70097334601220221EC
:102868002046FFF7B5FE08B1032368E73A4631462C
:102878002046FFF7F8FE034618B1202363650123BD
:102888005DE7A26832B903922268D1680391926821
:102898000392039A626D002A3FF451AF01234EE779
:1028A80001234CE701234AE7032348E7032346E7CC
:1028B80002234AE72DE9F04385B099460C9D90F82C
:1028C8005030012B00F0108104460F4616460123B4
:1028D80080F85030FDF73EFE804694F85130DBB268
:1028E8006268012B15D0B2F5827F0AD0022301223B
:1028F80084F85120002284F85020184605B0BDE81D
:10290800F083A268002A40F0E780042B01D002235C
:10291800EDE7002F00F0E280002E00F0E180B9F131
:10292800000F00F0DF8094F85130DBB2012B2BD080
:1029380000236365A663A4F83E90A4F83C9027633F
:10294800A4F83690A4F834902364636423681A6862
:1029580012F0400F03D11A6842F040021A60E3688F
:10296800B3F5006F14D063681BB1E38E9BB2012BE3
:1029780007D1236817F8012B1A73E38E013B9BB22A
:10298800E3864FF0010961E0052384F85130CFE771
:1029980063681BB1E38E9BB2012B07D1236837F81C
:1029A800022BDA60E38E013B9BB2E3864FF001090C
:1029B80013E0E38F9BB26BB123689A6812F0010FA2
:1029C80008D0DB6826F8023BE38F013B9BB2E38724
:1029D8004FF00109B5F1FF3F1CD1E38E9BB21BB943
:1029E800E38F9BB2002B55D0B9F1000FE1D0E38EF5
:1029F8009BB2002BDDD023689A6812F0020FD8D062
:102A080037F8022BDA60E38E013B9BB2E3864FF086
:102A18000009CEE7FDF79EFDA0EB0800A842DCD335
:102A2800032364E7E38F9BB26BB123689A6812F0C3
:102A3800010F08D0DB683370E38F013B9BB2E3875B
:102A480001364FF00109B5F1FF3F1BD1E38E9BB270
:102A580013B9E38F9BB2EBB1B9F1000FE2D0E38E6B
:102A68009BB2002BDED023689A6812F0020FD9D0EF
:102A78003A781A73E38E013B9BB2E38601374FF035
:102A88000009CFE7FDF766FDA0EB0800A842DDD3FB
:102A980003232CE7CDF800802B4601220221204693
:102AA800FFF796FD08B1032321E742462946204651
:102AB800FFF7D9FD034618B120236365012316E704
:102AC800A268002A7FF413AF03922268D1680391A9
:102AD80092680392039A0AE7022308E7012306E7AC
:102AE800012304E7012302E7022306E790F85100D7
:102AF800704710B4036A046A24F00104046284690C
:102B080024F0F00444EA021223F00A030B43826122
:102B180003625DF8044B704710B4036A23F0100396
:102B280003628469036A24F4704444EA023223F09D
:102B3800A00343EA0113826103625DF8044B704706
:102B4800836823F0700341F00701194381607047DF
:102B580010B4846824F47F4442EA03230B432343DC
:102B680083605DF8044B70470268D36843F0010343
:102B7800D3600268136843F00103136000207047B4
:102B880090F83830012B7DD010B50446012380F829
:102B98003830022380F839300268936823F47F4381
:102BA80023F0770393600B68402B57D010D9702B14
:102BB8003ED01FD8502B47D0602B32D1CA68496805
:102BC8000068FFF7A9FF60212068FFF7B9FF28E038
:102BD800102B4DD008D9202B4FD0302B21D13021AC
:102BE8000068FFF7ADFF1CE0DBB900210068FFF7C4
:102BF800A7FF16E0B3F5805F0ED0B3F5005F10D1E4
:102C0800CB684A6889680068FFF7A2FF2268936862
:102C180043F48043936004E00268936823F0070359
:102C28009360012384F83930002084F8380010BDFF
:102C3800CB684A6889680068FFF78AFF226893684A
:102C480043F077039360ECE7CA6849680068FFF7C8
:102C580050FF50212068FFF773FFE2E7CA68496810
:102C68000068FFF746FF40212068FFF769FFD8E7B3
:102C780010210068FFF764FFD3E720210068FFF701
:102C88005FFFCEE702207047704770477047704774
:102C980010B5044603681A6912F0020F11D0DA68F9
:102CA80012F0020F0DD06FF002021A6101230376B1
:102CB80003689B6913F0030F70D0FFF7E6FF00234A
:102CC800237623681A6912F0040F12D0DA6812F01A
:102CD800040F0ED06FF004021A61022323762368D2
:102CE8009B6913F4407F5FD02046FFF7CEFF002397
:102CF800237623681A6912F0080F12D0DA6812F0E6
:102D0800080F0ED06FF008021A6104232376236897
:102D1800DB6913F0030F4ED02046FFF7B6FF002300
:102D2800237623681A6912F0100F12D0DA6812F0AD
:102D3800100F0ED06FF010021A6108232376236853
:102D4800DB6913F4407F3DD02046FFF79EFF002348
:102D5800237623681A6912F0010F03D0DA6812F09B
:102D6800010F36D123681A6912F0800F03D0DA6890
:102D780012F0800F34D123681A6912F0400F03D083
:102D8800DA6812F0400F32D123681A6912F0200F66
:102D980003D0DA6812F0200F30D110BDFFF774FFAE
:102DA8002046FFF773FF8AE72046FFF76DFF2046AE
:102DB800FFF76CFF9BE72046FFF766FF2046FFF70B
:102DC80065FFACE72046FFF75FFF2046FFF75EFF91
:102DD800BDE76FF001021A61204601F0E5FEC1E788
:102DE8006FF080021A61204600F030F9C3E76FF0F7
:102DF80040021A612046FFF74AFFC5E76FF020023C
:102E08001A61204600F021F9C7E7000003682E4A3E
:102E1800904212D0B0F1804F0FD0A2F57C42904280
:102E28000BD002F58062904207D002F58062904292
:102E380003D002F57842904203D123F070034A6828
:102E48001343214A90422AD0B0F1804F27D0A2F5EF
:102E58007C42904223D002F5806290421FD002F556
:102E6800806290421BD002F57842904217D002F55A
:102E78007052904213D002F5806290420FD002F552
:102E8800806290420BD0A2F59832904207D002F5AA
:102E98008062904203D002F58062904203D123F40D
:102EA8004073CA68134303608B68C3620B6883620C
:102EB800054B984203D003F58063984201D10B6912
:102EC800036301234361704700000140A8B110B5B6
:102ED800044690F839305BB1022384F83930211D5B
:102EE8002068FFF793FF012384F83930002010BDD4
:102EF80080F8383002F014FAEEE701207047002815
:102F080047D0F8B505460C4690F83930002B3BD031
:102F1800022385F83930294651F8042B936823F0A9
:102F2800070393602868FFF771FF29688A688E692C
:102F38000F6A2068104326F4407626F00306A2683C
:102F4800A36942EA0323334323F47C4323F0FC03BD
:102F5800E668E26946EA02261E43226A13032269EA
:102F680043EA0213334327F0AA076268646942EA16
:102F780004123A43886029688B612B681A6201231E
:102F880085F839300020F8BD80F8383002F09EF915
:102F9800BEE70120704710B4012303FA01F4036A65
:102FA80023EA04030362036A8A40134303625DF859
:102FB800044B704710B5044661B1042916D00122AC
:102FC80000210068FFF7E7FF012204212068FFF7CE
:102FD800E2FF04E0012200210068FFF7DCFF22681D
:102FE800136843F001031360002010BD012204217F
:102FF8000068FFF7D0FFF2E790F83830012B22D0B5
:1030080030B4012280F83820022380F8393004686F
:10301800636823F070036360046863680D682B437A
:1030280063600468A36823F08003A3600468A3684E
:1030380049680B43A36080F83920002380F83830B2
:10304800184630BC70470220704770477047000030
:1030580010B582B0064C20700B786370642300931F
:10306800022322469421201DFEF7FAF802B010BD73
:103078002C00002070B582B00E460A4A144604F8A7
:10308800040B64250095012394212046FEF7E8F8F7
:1030980000950123324694212046FEF7A3F902B099
:1030A80070BD00BF2C00002084B070B504AC84E86B
:1030B8000F009DF86460444B002283F840201A6892
:1030C800D36943F48063D361012210213F48FDF79F
:1030D80037FE3F4C542204A9201D02F0D3F90123E6
:1030E800637021460220FFF7B3FF2546AF2305F89A
:1030F800013F29460420FFF7ABFF80236370294670
:103108000520FFF7A5FF21460620FFF7B3FF6378E8
:1031180003F0200343F00703637029460620FFF7F6
:1031280097FF29460820FFF7A5FF637803F0F0030F
:1031380043F00103637029460820FFF789FF2946F9
:103148000920FFF797FF637803F0F00343F00103CA
:10315800637029460920FFF77BFF29460E20FFF7F9
:1031680089FF012E28D016B9194B02225A70184D22
:103178006C1C21460E20FFF76BFF21460F20FFF73E
:1031880079FF00266E7021460F20FFF761FF6E70F1
:1031980021461420FFF75CFF21461520FFF758FF52
:1031A80021461A20FFF754FF21461B20FFF750FF46
:1031B800BDE8704004B07047637843F0C00303F083
:1031C800C7036370D3E700BFB40A0020000C0240B5
:1031D8002C00002008B5032806D8DFE800F0020F0D
:1031E80013170C4BF0225A700A494B7843F00F031F
:1031F80001F8013F0420FFF72BFF08BD054BB02263
:103208005A70F1E7034BE0225A70EDE7014BA02218
:103218005A70E9E72C00002038B50446A0F13203C3
:10322800DBB25B00114D05F8013F29461420FFF77A
:103238000FFF29461520FFF70BFF642C14D804EB69
:10324800440423010A4A82FB03235B09183BDBB2CF
:10325800064C04F8013F21462020FFF7F9FE2146DD
:103268002120FFF7F5FE38BD1823F1E72C000020D8
:103278001F85EB5138B5194D2C46992304F8013FA9
:1032880021460020FFF7E4FE80236B70214647208B
:10329800FFF7DEFE21463220FFF7ECFE6B7863F085
:1032A8007F036B7021463220FFF7D2FE2146322081
:1032B800FFF7E0FE6B7803F07F036B702146322046
:1032C800FFF7C6FE002068702146FFF7C1FE9E2367
:1032D8006B7021460220FFF7BBFE38BD2C00002092
:1032E800014B00221A7070478400002000B583B09B
:1032F8008DF807000748FFF7F9FB0128FAD141F2DA
:10330800883301220DF107010248FFF700FA03B0E4
:103318005DF804FB2008002000B585B0FF238DF878
:103328000F3000238DF80E300A48FFF7DFFB012825
:10333800FAD141F28833009301230DF10E020DF109
:103348000F010448FFF7B6FA9DF80E0005B05DF8C6
:1033580004FB00BF2008002010B582B0002404E060
:10336800FF20FFF7C3FF0134E4B2092CF8D940234A
:103378008DF8003000248DF801408DF802408DF85A
:1033880003408DF8044095238DF8053007E002AB23
:10339800234413F8080CFFF7A9FF0134E4B2052C05
:1033A800F5D941F6FF7400E0013CFFF7B5FF0128AD
:1033B80001D0002CF8D1FF20FFF798FF024B012223
:1033C8001A7002B010BD00BF8400002008B5074B7A
:1033D80032225A70FFF7A0FFFFF79EFFFF2803D0A5
:1033E800024B5B78002BF7D108BD00BF840000209A
:1033F80038B504460D46FFF7E9FFFF2801D0FF2046
:1034080038BD2046FFF772FF280EFFF76FFFC5F3A0
:103418000740FFF76BFFC5F30720FFF767FFE8B228
:10342800FFF764FF402C11D00020482C10D0FFF784
:103438005DFF4C2C0ED00A24FFF76EFF10F0800FB2
:10344800DED0631E13F0FF04F6D1D9E79520ECE730
:103458008720ECE7FFF760FFEDE710B50446FFF7BC
:103468005BFF207010BD000070B504460E460F4B80
:103478000A229A70FFF750FFFF2803D10B4B9B7865
:10348800002BF7D1FE2801D0002070BD651C204616
:10349800FFF7E3FF28460234FFF7DFFF023EF5D1CE
:1034A800FFF73AFFFFF738FF0120EEE7840000201E
:1034B800F8B506460C46FFF789FFFF2801D0002023
:1034C800F8BD2046FFF712FFFD2C21D00024354619
:1034D80015F8020BFFF70AFF7078FFF707FF631E66
:1034E8002E4613F0FF04F2D1FFF716FFFFF714FF83
:1034F8000024402C08D8FFF70FFF074600F01F03F1
:10350800052B01D00134F4E7FFF706FF0028FBD0B4
:1035180007F01F07052F01D00020D1E70120CFE7D2
:10352800002840F0AA8030B583B00446544B1B787D
:1035380013F0020F04D0524B1878C0B203B030BD5C
:10354800FFF70AFF00214020FFF752FF0546012838
:103558000FD04C4BDC70FFF7DFFE002C00F08A80A8
:10356800474A137803F0FE031370454B1878C0B22E
:10357800E4E7444B64229A704FF4D5714820FFF772
:1035880037FF012840D1254607E0FFF7C5FE02AB0B
:103598002B4403F8040C0135EDB2032DF5D99DF841
:1035A8000630012BD5D19DF80730AA2BD1D102E0E6
:1035B800344B9B7863B100217720FFF719FF01286E
:1035C800F6D84FF080416920FFF712FF0028EFD1AD
:1035D8002C4B9B78002BBCD000217A20FFF708FFEA
:1035E800054640B1B5E7FFF797FE02AB2B4403F859
:1035F800040C0135EDB2032DF5D99DF8043013F014
:10360800400F35D00624A4E700217720FFF7F0FE0D
:10361800012810D800216920FFF7EAFE01280AD8FE
:10362800022508E000217720FFF7E2FE012818D9DB
:10363800144B9B783BB1022DF4D000214120FFF7B9
:10364800D7FE0028F4D10F4B9B78002B81D04FF484
:1036580000715020FFF7CCFE00287FF47AAF2C468B
:1036680077E700216920FFF7C3FE0028E0D1EAE7E9
:1036780002246EE7FFF734FE77E70120704700BFAA
:10368800080000208400002018B9034B1878C0B245
:1036980070470120704700BF08000020002839D17A
:1036A80038B50D461C46002B36D01D4B1B7813F041
:1036B800010F33D11B4BDB7813F0040F00D15202FA
:1036C800012C18D011465220FFF792FE68B94FF42A
:1036D80000712846FFF7C8FE18B105F50075013CD2
:1036E800F5D100214C20FFF783FEFFF715FE201CC3
:1036F80018BF012038BD11465120FFF779FE002878
:10370800F3D14FF400712846FFF7AEFE0028ECD045
:103718000024EAE7042070470420EBE70320E9E7E8
:10372800080000208400002000284CD170B50D4608
:1037380016461C46002B48D0274B1B7813F0010F68
:1037480045D1254B1B7813F0040F42D1234BDB786E
:1037580013F0040F00D15602012C1BD013F0020FF6
:1037680026D131465920FFF743FE68B9FC21284687
:10377800FFF79EFE18B105F50075013CF6D1FD2155
:103788000020FFF795FEE0B1FFF7C6FD201C18BF2B
:10379800012070BD31465820FFF72AFE0028F3D1DA
:1037A800FE212846FFF784FE0028EDD00024EBE731
:1037B80000217720FFF71CFE21465720FFF718FE4F
:1037C800CFE70124E0E7042070470420E1E7032065
:1037D800DFE70220DDE700BF0800002084000020AA
:1037E800094B9A7802F0FF031AB1013BDBB2064A93
:1037F8009370054B5A7802F0FF031AB1013BDBB214
:10380800014A5370704700BF8400002008B5084A79
:10381800138801339BB2138013889BB2092B00D8FD
:1038280008BD134600221A80FFF7DAFFF8E700BF49
:10383800E402002000487047C05CC5364278007832
:1038480040EA02207047C278837843EA022243782C
:1038580043EA0223007840EA032070470170090A0E
:10386800417070470170C1F307234370C1F30743E8
:103878008370090EC170704713462AB10A78027026
:1038880001300131013BF9D1704701700130013A33
:10389800FBD1704730B4451C037808781B1A013AED
:1038A80004D04C1C28462146002BF4D0184630BCC6
:1038B800704700E0013003780BB18B42FAD118460B
:1038C8007047802807D99F2807D9DF2807D9FC28FF
:1038D80007D900207047002070470120704700205A
:1038E8007047012070473F280BD97E280BD910F06C
:1038F800800F02D148B100207047FC28FAD8012077
:103908007047002070470120704701207047023936
:103918004369023B8B4204D9836A408901FB00302A
:1039280070470020704770B506460D4601F11A0031
:10393800FFF784FF3378032B00D070BD044605F1F0
:103948001400FFF77BFF44EA0040F6E770B506462F
:103958000C46154691B204F11A00FFF77FFF337841
:10396800032B00D070BD290C04F11400FFF776FF7B
:10397800F8E700002DE9F04F83B083460091D1F8B5
:10398800008000F1200A0B2220215046FFF77DFF1E
:10399800002635464FF008091AE0013718F80730B5
:1039A8002F2BFAD05C2BF8D04744009B1F60002EC9
:1039B8005AD09BF82030E52B48D0202C4AD8042335
:1039C8008BF82B30002016E008264FF00B093D46F7
:1039D8006F1C18F80540202CE6D92F2CDED05C2C63
:1039E800DCD02E2C01D0B14508D8B9F10B0F33D05B
:1039F8002E2CE9D0062003B0BDE8F08F2046FFF753
:103A080060FF98B1AB1C019318F807502846FFF7E0
:103A18006AFF18B309F1FF33B34221D9731C0AF8BE
:103A280006400AF803500236019FD0E721460F48A6
:103A3800FFF73FFFB0B9A4F16103DBB2192B01D83E
:103A4800203CE4B20AF806400136C0E705238BF8AB
:103A58002030B2E70023B3E70620CCE70620CAE708
:103A68000620C8E70620C6E70620C4E7DC5400089D
:103A780010B40468E4B12246511C1378202B02D9F3
:103A88000A463A2BF8D13A2B04D0002318465DF8A1
:103A9800044B70472378A3F13002D2B2092A0AD81E
:103AA80002348C420AD1303B002B0ADC0160EDE77E
:103AB8004FF0FF33EAE74FF0FF33E7E74FF0FF330C
:103AC800E4E74FF0FF33E1E738B50D46A8B1044607
:103AD8000368ABB11A78AAB18188DA88914203D019
:103AE800092000232B6038BD5878FFF7CDFD10F072
:103AF800010F0AD123680020F4E709200023F1E729
:103B08000920EFE709200023ECE709200023E9E773
:103B180038B5C3780BB9002038BD044600F130052C
:103B28000123C26A29464078FFF7FEFDA0B90023A9
:103B3800E370E16A236ACB1AA26993420ED2A37892
:103B4800022B01D00020E7E701230A4429466078C8
:103B5800FFF7EAFD0020DFE70120DDE70020DBE7D3
:103B680070B5C36A8B4212D004460D46FFF7D0FFEA
:103B7800064668B901232A4604F130016078FFF748
:103B88008DFD10B101264FF0FF35E56200E00026FB
:103B9800304670BD10B504460023C3704FF0FF33A4
:103BA800C362FFF7DDFFF8B904F22E20FFF746FEE7
:103BB8004AF65523984219D194F83030E92B03D0AE
:103BC800EB2B01D0E82B13D103220B4904F166003B
:103BD800FFF760FE70B10522084904F18200FFF783
:103BE80059FE20B1022002E0042000E0032010BDAD
:103BF8000220FCE70020FAE7EC540008F054000823
:103C08002DE9F04784B00F46164600230B60FFF7F6
:103C18002FFF051EC0F24A81B94B53F82540002CEE
:103C280000F048813C6006F0FE06237873B16078A6
:103C3800FFF72AFD10F0010F08D1002E00F03C819B
:103C480010F0040F40F03A81002030E10023237087
:103C5800E8B26070FFF764FC10F0010F40F03081AB
:103C68001EB110F0040F40F02D8100212046FFF70F
:103C780091FF022800F087800026042800F02481A4
:103C8800012800F2238104F13B00FFF7D7FDB0F5CE
:103C9800007F40F01D8104F14600FFF7CFFD074685
:103CA80020B904F15400FFF7CEFD0746A76194F848
:103CB8004020A270531EDBB2012B00F20B8107FBE0
:103CC80002F594F83D80A4F80A80B8F1000F00F0DE
:103CD800038108F1FF3318EA030F40F0FF8004F175
:103CE8004100FFF7ABFD8246208110F00F0F40F036
:103CF800F78004F14300FFF7A1FD814620B904F1E4
:103D08005000FFF7A0FD814604F13E00FFF796FD45
:103D18000146002800F0E680421902EB1A1291458C
:103D2800C0F0E280A9EB0203B3FBF8F3002B00F02C
:103D3800DD80744883423ED94FF000094FF6F57094
:103D4800834201D84FF0020940F6F570834235D915
:103D5800B9F1000F34D10D20A9E0002004AB03EB2A
:103D6800850343F8100C0135032D0ED804F13000FB
:103D78002B0103F5DF7318440379002BEDD00830CD
:103D8800FFF761FDEAE70025EEE700250AE0314686
:103D98002046FFF7FFFE01287FF66FAF0135032DA0
:103DA8003FF66BAF04AB03EB850353F8106C002EA2
:103DB800EDD10320F2E74FF00309BFE74FF0010907
:103DC80003F10208C4F81480E6618B1923623244B7
:103DD800A262B9F1030F26D0BAF1000F00F08C806F
:103DE8002B446362B9F1020F2ED008EB480208F0A9
:103DF800010303EB520303F2FF13B7EB532F7DD3F9
:103E08004FF0FF332361E36080232371B9F1030F7F
:103E18001DD084F800903A4A938801339BB293806E
:103E2800E380002043E004F15A00FFF707FD002873
:103E38005ED1BAF1000F5DD104F15C00FFF703FD1C
:103E480060624FEA8803D6E74FEA4803D3E704F1F4
:103E58006000FFF7F3FC0128DBD1711C2046FFF757
:103E68007FFE0028D5D10023237104F22E20FFF70E
:103E7800E5FC4AF655239842CBD104F13000FFF710
:103E8800E2FC214B9842C4D104F50570FFF7DBFC36
:103E98001E4B9842BDD104F50670FFF7D4FC206193
:103EA80004F50770FFF7CFFCE060B2E70B2004B021
:103EB800BDE8F0870C20FAE70020F8E70A20F6E7CB
:103EC8000320F4E70A20F2E70120F0E70D20EEE7EF
:103ED8000D20ECE70D20EAE70D20E8E70D20E6E7E6
:103EE8000D20E4E70D20E2E70D20E0E70D20DEE7F6
:103EF8000D20DCE70D20DAE70D20D8E70D20D6E706
:103F080088000020F5FFFF0F525261417272416133
:103F18002DE9F04701297AD943698B4279D91746A7
:103F28000C4606460378022B43D0032B54D0012BB2
:103F380001D002256EE001EB5108016A01EB58211E
:103F4800FFF70EFE0546002864D106F1300A08F195
:103F58000109C8F3080814F001041FD01AF9083041
:103F680003F00F033A0102F47F621343DBB20AF84D
:103F780008300123F370316A01EB59213046FFF70D
:103F8800EFFD0546002845D1C9F3080944B1C7F338
:103F980007120AF809200123F3703BE0FBB2E6E7B9
:103FA8001AF9092022F00F02C7F303273A43D2B2C5
:103FB800EFE7016A01EB1421FFF7D2FD054648BB84
:103FC80006F13000640004F4FF74B9B22044FFF72E
:103FD80045FC0123F3701DE0016A01EBD411FFF7E2
:103FE800BFFD0546B0B927F0704706F13003A100C0
:103FF80001F4FE715C182046FFF725FC00F07041C3
:1040080039432046FFF72EFC0123F37002E0022516
:1040180000E002252846BDE8F087F8B506680129C2
:1040280053D973698B4252D90C463378022B2BD063
:10403800032B39D0012B01D0012047E001EB5105BA
:10404800316A01EB55213046FFF78AFD002840D13F
:104058006F1CC5F30805354495F83050316A01EBFB
:1040680057213046FFF77CFDB0BBC7F30803334444
:1040780093F8300045EA002014F0010F01D0000940
:1040880024E0C0F30B0021E0316A01EB1421304633
:10409800FFF766FD18BB06F13000610001F4FF71FF
:1040A8000844FFF7CBFB11E0316A01EBD41130462D
:1040B800FFF756FDB0B93036A10001F4FE70304468
:1040C800FFF7C1FB20F0704000E00120F8BD01209F
:1040D800FCE74FF0FF30F9E74FF0FF30F6E74FF01D
:1040E800FF30F3E74FF0FF30F0E72DE9F0410768C4
:1040F800B1F5001F3BD206460D4611F01F0F39D10E
:10410800316184681CB93B78022B00D97C6A94B968
:104118003B89B3EB551F2FD97B6AB3617461B369CF
:1041280093B303EB5523B3613037C5F308053D441A
:10413800F56100201CE0B7F80A804FEA4828454599
:104148000FD321463046FFF768FF0446B0F1FF3F22
:1041580014D0012814D97B69834213D9A5EB08052B
:10416800EDE721463846FFF7D2FBB061D6E70220DB
:10417800BDE8F0810220FBE70220F9E70120F7E71C
:104188000220F5E70220F3E70220F1E72DE9F041EC
:1041980007460668884631B9F5688DB17369AB4240
:1041A8000FD801250DE0FFF738FF0346012867D92E
:1041B800B0F1FF3F65D07269824262D8454600E09F
:1041C80001253369002B5CD0454501D02C4641E0E0
:1041D8006C1C7369A34200D8022421463846FFF7B5
:1041E8001CFF034601284CD0B0F1FF3F49D038B13D
:1041F800F368012BEAD972699A42E7D91D46E5E7C7
:10420800002CE3D04FF0FF3221463046FFF780FE06
:10421800034610B9B8F1000F24D153BBF4603269DA
:104228007369023B9A4201D8013A3261337943F00B
:1042380001033371234624E021463846FFF7EDFE9B
:1042480003460028DED001281BD0B0F1FF3F18D06C
:10425800AC421BD001347369A342EDD8012D13D9A8
:104268000224E9E7224641463046FFF751FE03465D
:10427800D3E7012B01D0012303E04FF0FF3300E027
:1042880001231846BDE8F0810023FAE70023F8E788
:10429800F8B50E46056801292ED9074611466B69FF
:1042A800B3422CD952B14FF0FF322846FFF730FE07
:1042B800844618B125E02646A24222D9314638461E
:1042C800FFF7ABFE0446F0B101281FD0B0F1FF3F65
:1042D8001FD0002231462846FFF71AFE844680B9CF
:1042E8002B696A69911E8B42E5D201332B612B79C8
:1042F80043F001032B71DEE74FF0020C01E04FF0B1
:10430800020C6046F8BD4FF0000CFAE74FF0020CC3
:10431800F7E74FF0010CF4E7F8B505460C46FFF750
:10432800F7FB08B10120F8BD21462846FFF7EFFA50
:104338000746E86205F130064FF400720021304666
:10434800FFF7A3FA002400E001346B89A34207D9E0
:104358000123E21931466878FFF7E6F90028F3D01F
:104368006889001B18BF0120DDE72DE9F8430668BE
:1043780005692035B5F5001F01D3002383618369E2
:10438800002B47D088460446C5F308073FB90133D8
:104398008361416979B93389B3EB551F07D9256121
:1043A80006F130033B44E3610020BDE8F8830023B5
:1043B80083610420F9E77389013B13EA5523EED1A1
:1043C800FFF72BFE8146012826D9B0F1FF3F25D003
:1043D8007369834212D8B8F1000F17D0616920467B
:1043E800FFF7D4FE8146D8B101281BD0B0F1FF3FBA
:1043F8001AD001463046FFF78FFFB8B9C4F81490B9
:1044080049463046FFF783FAA061C8E70023A36155
:104418000420CAE70420C8E70220C6E70120C4E751
:104428000720C2E70220C0E70120BEE70120BCE761
:1044380070B5044606680021FFF757FE054640B1EF
:10444800284670BD00212046FFF78FFF054600284B
:10445800F6D1A1693046FFF783FB05460028EFD166
:10446800E06903787BB1C37A03F03F03A371C37A91
:1044780013F0080FE6D10B2204F12001FFF70AFA26
:104488000028DFD1DCE70425DAE730B583B004463D
:104498000191056801E001330193019B1A782F2AE5
:1044A800F9D05C2AF7D00022A2601B781F2B1ED9F6
:1044B80001A92046FFF75EFA034600BB2046FFF736
:1044C800B7FF94F82B200346E0B912F0040F16D179
:1044D800A37913F0100F1CD005F130012369C3F341
:1044E800080319442846FFF71EFAA060E0E7802376
:1044F80084F82B3011462046FFF7F7FD034618468F
:1045080003B030BD0428FAD112F0040FF7D1052307
:10451800F5E70523F3E7F8B504460F4606680021DA
:10452800FFF7E3FD0346C0B9002508E00135BD42A9
:1045380013D001212046FFF718FF034668B9A16987
:104548003046FFF70DFB034638B9E2691278E52AD1
:10455800ECD0002AEAD00025EBE7042B01D018465E
:10456800F8BD0723FBE770B5044606680121FFF78D
:10457800D2FF054608B1284670BDA1693046FFF74D
:10458800EFFA05460028F6D120220021E069FFF75E
:104598007CF90B2204F12001E069FFF76DF9012392
:1045A800F370E8E710B584B001900091144604A8B0
:1045B80040F8041DFFF75CFA002817DB0C4B53F892
:1045C80020300BB100221A70019B0BB100221A7027
:1045D800074B019A43F8202014B9002004B010BDFD
:1045E800002201A96846FFF70BFBF7E70B20F5E768
:1045F800880000202DE9F0418EB00191002800F0DC
:10460800E7800546164602F03F073A4602A901A888
:10461800FFF7F6FA044630B10CB100232B602046B0
:104628000EB0BDE8F081029B0393019903A8FFF740
:104638002CFF044618B99DF93730002B40DB16F0E3
:104648001C0F4ED0002C42D0042C3BD047F008075A
:10465800002C55D117F0080F52D00A9E3146029807
:10466800FFF761F98046FFF7E5F8014606F10E000D
:10467800FFF7F8F80A9B2022DA7200220A990298BA
:10468800FFF764F900210A981C30FFF7EBF8029B4A
:104698000122DA70B8F1000F32D0029BDE6A0022E4
:1046A800414603A8FFF7F4FD044648BB314602988B
:1046B800FFF756FA044608F1FF33029AD3601FE069
:1046C8000624BCE703A8FFF74EFF0446BEE79DF8A3
:1046D800123013F0110F12D116F0040FB8D00824BD
:1046E8000EE06CB99DF8123013F0100F40D116F09F
:1046F800020F05D013F0010F02D007240BE00724A6
:104708004CB917F0080F01D047F04007029BDB6A4D
:104718002B620A9B6B62002C7FF47EAF029EDDF851
:10472800288041463046FFF7FEF8A86008F11C00D3
:10473800FFF789F8E8602E60F388AB802F740021BA
:104748006974E961696105F128084FF4007240460F
:10475800FFF79BF817F0200F3FF45EAFEE68002ECE
:104768003FF45AAF6E61029B5F897F02A96805E03A
:104778000424D0E7B1F1FF3F0BD0F61B5CB9BE4271
:1047880009D92846FFF749FC01460128F2D8022436
:10479800F0E70124F1E7A961002C7FF43DAFC6F3EF
:1047A8000803002B3FF438AF029F3846FFF7AFF8F5
:1047B80008B9022431E700EB5622EA610123414699
:1047C8007878FEF76BFF00283FF426AF012424E732
:1047D800092424E72DE9F04F85B004468946174699
:1047E80098460023C8F80030009003A9FFF76CF939
:1047F8000646002840F09580667C002E40F09180A7
:10480800237C13F0010F00F0A380E5686369ED1ABB
:10481800BD4250D33D464EE0A1690098FFF7FDFB2D
:1048280059E0022666747CE00126667479E0022667
:10483800667476E094F91030002B02DB4FEA4B27C0
:104848002FE0E069A0EB0A005845F7D24FF4007258
:1048580004F1280109EB4020FFF70EF8EEE7E269C2
:1048680052450DD094F91030002B5EDB01235246DF
:1048780004F1280103984078FEF710FF002864D15E
:10488800C4F81CA06369C3F30803C3F50077BD42ED
:1048980000D22F4604F128013A4619444846FEF74B
:1048A800EBFFED1BD8F800303B44C8F80030B944A2
:1048B80063691F446761002D33D06369C3F308023D
:1048C800002ADFD1039A5789013F17EA532708D1F5
:1048D800002BA1D1A0680128A3D9B0F1FF3FA3D034
:1048E800A061039B0193A1691846FFF710F882465F
:1048F80000289CD0BA445FEA552BB0D007EB0B03D5
:10490800019A5289934201D9A2EB070B5B465246A2
:10491800494601984078FEF7C1FE00288AD0012652
:104928006674304605B0BDE8F08F012304F1280114
:1049380001984078FEF7F8FE20B9237C03F07F0346
:10494800237493E701266674EBE701266674E8E7AB
:104958000726E6E72DE9F04383B004460E46814674
:1049680001A9FFF7B1F8074600B9677C002F40F0AE
:104978009080E368B34204D2227C12F0020F00D187
:104988001E46636900226261002E64D0019AB2F863
:104998000A804FEA482873B1721EB2FBF8F2013B55
:1049A800B3FBF8F18A4206D3C8F1000213406361F1
:1049B800F61AA56902E0A56815B1A5610DBB4BE023
:1049C80000212046FFF7E2FB0546012804D0B0F19C
:1049D800FF3F04D0A060F0E70227677459E0012781
:1049E800677456E029464846FFF717FB0546B5F1B8
:1049F800FF3F27D0012D28D9019B5B69AB4224D901
:104A0800A561464510D9A6EB08066369434463616E
:104A1800237C13F0020FE5D029464846FFF7B6FB82
:104A280005460028E3D10026636933446361C6F371
:104A3800080393B329460198FEF769FF40B100EBDC
:104A4800562509E00127677423E00227677420E0F0
:104A5800022767741DE000256369E268934204D960
:104A6800E360227C42F040022274C3F3080383B15E
:104A7800E269AA420DD094F91030002B0FDB012314
:104A88002A4604F1280101984078FEF707FEB0B9DC
:104A9800E561384603B0BDE8F0830025DCE7012373
:104AA80004F1280101984078FEF73EFE20B9237CE6
:104AB80003F07F032374E2E701276774E9E701271E
:104AC8006774E6E730B58DB000240194274B1A6B64
:104AD80042F080021A631A6B02F080020192019A76
:104AE80002941A6B42F001021A631A6B02F0010277
:104AF8000292029A03941A6B42F010021A631A6B1C
:104B080002F010020392039A04941A6B42F008020E
:104B18001A631A6B02F008020492049A05941A6B3D
:104B280042F004021A631A6B02F004020592059A15
:104B380006941A6B42F002021A631B6B03F002031D
:104B48000693069B0A4D22464FF210012846FCF7B1
:104B5800F7F84FF2100307930123089309940A9476
:104B680007A92846FCF708F80DB030BD0038024008
:104B7800000C024000B583B000210191094B1A6B6B
:104B880042F400121A631B6B03F400130193019B98
:104B98000A461020FBF7F6FC1020FBF727FD03B0B0
:104BA8005DF804FB003802400368B3F1804F00D081
:104BB800704710B5264B1B6813B1012B24D010BDCC
:104BC800234C6368234AD35C082200212248FBF760
:104BD800B2FD636801336360B3F5007FEFD1002352
:104BE800636001232360A36803F50073A3601B4A75
:104BF800934201D90022A260154B99681848FFF723
:104C0800A9FE184B1870DAE7114C6368164AD35C92
:104C1800082200211048FBF78EFD636801336360AA
:104C2800B3F5007FCBD1002363602360A36803F54D
:104C38000073A360094A934201D90022A260044B81
:104C480099680748FFF786FE064B1870B7E700BF5C
:104C5800900000203C030020C807002000CA9A3BAF
:104C68009C0500201C080020B4080020FEE7000076
:104C780008B50C480C4B03600C4B43600023836061
:104C8800C3604FF48042026143618361C361036280
:104C9800FCF758FA00B908BD40F233110448FFF791
:104CA800E5FF00BFE802002000540040A086010094
:104CB800F854000808B50C480C4B03604FF4007218
:104CC800426000238360C36002614BF68032426118
:104CD8008361C3610362FCF7ADFD00B908BD40F212
:104CE80047110348FFF7C2FFB40A0020003C004008
:104CF800F854000800B583B00D480E4B0360FBF76D
:104D0800ACFC50B900220092019269460848FBF7B2
:104D1800EDFC38B903B05DF804FB4FF48B7106481D
:104D2800FFF7A4FF40F21F110348FFF79FFF00BFE2
:104D3800C807002000740040F854000800B587B088
:104D480018484FF080430360F923436000238360D1
:104D58001422C2600361FEF7B9F8A0B906A94FF49E
:104D6800805341F8103D0F48FDF70AFF80B9202312
:104D780000930023019369460A48FEF73DF960B99C
:104D880007B05DF804FB4FF4CB710748FFF76EFFDF
:104D98004FF4CE710448FFF769FF40F2A3110248AF
:104DA800FFF764FF78080020F854000808B50F489A
:104DB8000F4B03604FF48273436000238360C3602A
:104DC800036143614FF4007282611822C261036279
:104DD800436283620A23C362FDF759FC00B908BD28
:104DE80040F25F110348FFF741FF00BF2008002091
:104DF80000300140F854000800B58DB01648174B34
:104E08000360002343608360C3600361436103223E
:104E1800039204930121059106930F2207920893A8
:104E280009910A930B9203A9FEF769F850B9002378
:104E38000193029301A90848FEF7DEF838B90DB0CE
:104E48005DF804FB4FF4BE710548FFF70FFF40F211
:104E580083110348FFF70AFFE00700200000014024
:104E6800F854000800B599B000210191314B1A6C33
:104E780042F080521A641B6C03F080530193019B2B
:104E880002912D4B1A6842F480421A601B6803F4A1
:104E980080430293029B01230C934FF480330D93BC
:104EA800022212924FF48003139304231493A8212F
:104EB8001591169217930CA8FCF7ACFF70BB0F2343
:104EC800079302230893002309934FF4A0530A93EE
:104ED8004FF480530B93052107A8FDF7D3F908BBBE
:104EE80001230393322304930223059303A8FDF7B8
:104EF8008BFAD8B9FDF772FA104BA3FB0030800982
:104F0800FBF780FB0420FBF793FB002211464FF0D0
:104F1800FF30FBF737FB19B05DF804FBE6210848C2
:104F2800FFF7A4FEF4210648FFF7A0FEFC21044881
:104F3800FFF79CFE0038024000700040D34D62101D
:104F4800F854000800B593B0FBF7DEFAFFF78AFFC4
:104F5800FFF7B8FDFFF70EFEFFF78AFEFFF7AAFE80
:104F6800FFF7C8FEFFF7EAFEFFF720FFFFF744FF51
:104F7800344C01251195442204F11001684600F0D3
:104F880081FA94E80F00FEF78FF81920FEF744F92C
:104F98000320FEF71FF9FEF76DF92A462A492B4828
:104FA800FCF794FB00212A48FBF769FB2948FDF729
:104FB800DBFD18212848FDF7FDFF284B40F293122E
:104FC800DA62002226492748FFF7ECFA264C2070BF
:104FD8002A4626492648FFF70DFB207001E0012BE1
:104FE8001ED01E4B5B6A9BB2224A138013889B0813
:104FF800214AA2F83C32D2F84032002BEFD1126895
:10500800012AECD11D4B4FF400721D491848FFF7D7
:10501800E1FB154B1870184B0122C3F84022E0E75A
:10502800154B1B68002BDCD1144B4FF4007215494B
:105038000F48FFF7CFFB0C4B18700F4B0022C3F83B
:105048004022CEE7E802002008550008B40A0020F4
:10505800C807002078080020E00700200000014071
:105068000C5500089C0000201C0800201055000862
:105078009C050020DC07002090000020C4070020C9
:105088003C030020B408002010B582B0002400942E
:10509800214B5A6C42F480425A645A6C02F48042A2
:1050A8000092009A01941A6C42F080521A641B6CA8
:1050B80003F080530193019B0320FBF751FA22462A
:1050C80021466FF00B00FBF75DFA224621466FF090
:1050D8000A00FBF757FA224621466FF00900FBF752
:1050E80051FA224621466FF00400FBF74BFA22469C
:1050F80021466FF00300FBF745FA224621466FF080
:105108000100FBF73FFA224621464FF0FF30FBF73C
:1051180039FA02B010BD00BF0038024002680F4BD8
:105128009A4200D0704700B587B00021009103F57E
:10513800E2331A6C42F000521A641B6C03F00053FD
:105148000093009B1023019303230293039101A969
:105158000348FBF711FD07B05DF804FB007400403D
:10516800000002400268124B9A4200D0704700B516
:1051780087B04FF410730193122302930123039312
:1051880003230493042305930DEB03010948FBF75C
:10519800F3FC00230093084B1A6C42F400121A64C3
:1051A8001B6C03F400130093009B07B05DF804FB2D
:1051B8000054004000040240003802400268294BB5
:1051C8009A4200D07047F0B587B004460025009594
:1051D80003F5FE331A6C42F400421A641B6C03F4A4
:1051E80000430093009B4FF4A453019302270297B6
:1051F800039504950626059601A91B48FBF7BCFCF8
:105208004FF400430193029703950495059601A96D
:105218001648FBF7B1FC1648164B0360456040235F
:105228008360C5604FF4806303614FF4006343619A
:105238004FF4005383614FF48073C3610562042304
:10524800436203238362C5620563FBF707FB20B94A
:10525800074BA3639C6307B0F0BDEB210648FFF73B
:1052680005FDF5E7003C0040000802400000024050
:105278003C05002088600240185500080268114B60
:105288009A4200D0704700B587B00021009103F51D
:1052980084335A6C42F480525A645B6C03F4805332
:1052A8000093009B38230193022302930391032365
:1052B80004930523059301A90348FBF75DFC07B098
:1052C8005DF804FB00300140000402400268114B05
:1052D8009A4200D0704700B587B0002300930E4A69
:1052E800516C41F001015164526C02F001020092CC
:1052F800009A4FF4206201920222029203930493CF
:105308000123059301A90548FBF736FC07B05DF8B2
:1053180004FB00BF000001400038024000100240BA
:105328000368B3F1804F00D0704700B583B0002107
:10533800019103F50E331A6C42F001021A641B6CDA
:1053480003F001030193019B0A461C20FBF71AF99D
:105358001C20FBF74BF903B05DF804FB7047FEE730
:10536800FEE7FEE7FEE770477047704708B5FEF7AF
:105378004DFAFBF7E3F8FBF76CF908BD08B50248EE
:10538800FBF70CFB08BD00BF3C05002008B5024830
:10539800FDF77EFC08BD00BF780800200F49D1F852
:1053A800883043F47003C1F888300D4B1A6842F016
:1053B80001021A60002098601A6822F0847222F4B0
:1053C80080321A60074A5A601A6822F480221A60EA
:1053D800D8604FF000638B60704700BF00ED00E0BD
:1053E8000038024010300024DFF834D0002103E0F8
:1053F8000C4B5B58435004310B480C4B42189A42F3
:10540800F6D30B4A02E0002342F8043B094B9A42C8
:10541800F9D3FFF7C3FF00F011F8FFF793FD7047CA
:105428000000022044550008000000201000002061
:1054380010000020FC0A0020FEE7000070B50D4EA9
:105448000D4CA41BA4100025A54209D10B4E0C4CF1
:1054580000F024F8A41BA4100025A54205D170BDB6
:1054680056F8253098470135EEE756F82530984725
:105478000135F2E73C5500083C5500083C5500084A
:105488004055000810B5431E0A44914200D110BD92
:1054980011F8014B03F8014FF7E70000F8B500BF1A
:1054A800F8BC08BC9E467047F8B500BFF8BC08BCFD
:0454B8009E46704755
:1054BC000006101600061016000000000000000088
:1054CC00010203040607080900000000010203049E
:1054DC00222A2B2C3A3B3C3D3E3F5B5D7C7F0000FF
:1054EC004641540046415433320000002E2E2F53B7
:1054FC0072632F6D61696E2E630000002000000046
:10550C0000000000322E5741560000002E2E2F5363
:10551C0072632F73746D3332663478785F68616CA4
:08552C005F6D73702E63000037
:08553400C4ACFF7F0100000080
:04553C00AD010008B5
:0455400089010008D5
:105544000100000010000000010000000024F4002D
:04000005080053F1AB
:00000001FF
